:100000000C94E8000C9410010C9410010C94100155
:100010000C9410010C9410010C9410010C9410011C
:100020000C9410010C9410010C9466050C94CF05EF
:100030000C9410010C9410010C9410010C941001FC
:100040000C9410010C9410010C9410010C941001EC
:100050000C9410010C9410010C9410010C941308D2
:100060000C9410010C9410010C9410010C941001CC
:100070000C9410010C9410010C9410010C941001BC
:100080000C9410010C9410010C9410010C941001AC
:100090000C9410010C941001D002D302C202C602CB
:1000A000CA02EE02D702DB02E102E502E902000029
:1000B0002100240027002A002D003000000022002B
:1000C000250028002B002E00310004040202040247
:1000D00002040404020202020404050505050505E4
:1000E00005050606060606060606010101010101D0
:1000F0000101030303030303030304080480804096
:100100002040201001100802010280402010080445
:10011000020180402010080402010102040810209E
:100120004080010204081020408000000005000407
:1001300003000000000700000208000000000000AB
:1001400000000000000000000000000000000000AF
:100150000000000000000B0A0900080B0002020268
:100160000100090400000102020000052400100142
:1001700005240101010424020605240600010705E7
:10018000810310004009040100020A000000070575
:100190000202400000070583024000000403090436
:1001A0001201000202020040E0D31A6000020102C4
:1001B00003014477656E676F204C4C4300447765BC
:1001C0006E6775696E6F20426F61726400005D0832
:1001D00011241FBECFEFD0E1DEBFCDBF21E0ACE5E3
:1001E000B1E001C01D92A63EB207E1F711E0A0E028
:1001F000B1E0E6E4F8E102C005900D92AC35B1073C
:10020000D9F710E0C8EED0E004C02197FE010E94AB
:100210001B0CC73ED107C9F70E94C9080C94D50929
:100220000C940000FC0180917A01811103C08FEFD2
:100230009FEF08959FB7F89482E08093E9002091A2
:10024000F20030E01216130614F421E030E021151C
:10025000310551F084E6809379018091F10080832B
:100260008091F200882319F09FBFC90108958BE6A1
:100270008093E800F9CF2FB7F89483E08093E900EA
:100280009091E800892F807295FF04C09091F20050
:1002900080E4891B2FBF0895CF93DF931F92CDB7C2
:1002A000DEB76983DC01ED91FC910280F381E02DE2
:1002B00041E050E0BE016F5F7F4F09950F90DF91E5
:1002C000CF91089583E08093E9008091F200882324
:1002D00019F08AE38093E80008950E943B0190E0C2
:1002E0000895CF93DF931F92CDB7DEB7FC018485CD
:1002F000958597FD05C02FEF3FEF358724870BC00D
:10030000CE0101960E941201019719F4898190E0B3
:1003100002C08FEF9FEF0F90DF91CF9108950F9361
:100320001F93CF93DF931F92CDB7DEB78C01FC01F3
:100330008485958597FF0EC0CE0101960E9412011B
:10034000019719F4298130E002C02FEF3FEFF80147
:1003500035872487F801848595850F90DF91CF91AB
:100360001F910F910895FC018485958597FD0BC021
:100370009FB7F89482E08093E9008091F2009FBFDC
:1003800090E0019608959FB7F89482E08093E90089
:100390008091F2009FBF90E0089580916F018111DC
:1003A0000DC082E080936B0184E080936C01109219
:1003B0006E0110926D0181E080936F018BE691E0F8
:1003C0000895409167015091680120916501309135
:1003D000660142175307B4F49091E8009570E1F379
:1003E0009091E80092FD19C08093F100809167011F
:1003F0009091680101968F739927892B19F48EEFDC
:100400008093E80080916701909168010196909334
:1004100068018093670181E0089580E00895CF929C
:10042000DF92EF92FF920F931F93CF93DF931F9270
:10043000CDB7DEB7182F062FE42E862F880F8E5FDC
:1004400099830E94E10183E00E94E101F12EC12E17
:100450009981D92E8C2D8F19801798F4F601E7FE1B
:1004600002C0849101C080810E94E101182F80E0C8
:100470000E94E1018123FFEFCF1ADF0A8111EACF49
:1004800001C081E00F90DF91CF911F910F91FF90FC
:10049000EF90DF90CF900895DF92EF92FF920F934D
:1004A0001F93CF93DF93D82E8A017B01E40EF51EB4
:1004B000EB01CE15DF0571F0D7FE03C0FE0184917C
:1004C00001C088810E94E10121968111F2CF8FEF56
:1004D0009FEF01C0C801DF91CF911F910F91FF9055
:1004E000EF90DF9008950F931F93CF93DF931F92A8
:1004F000CDB7DEB782E0898342E450E06AE571E07F
:1005000080E80E944C020E94CD01DC0112960D9100
:100510001C9113970115110569F0D801ED91FC911B
:100520000280F381E02DBE016F5F7F4FC801099506
:1005300097FF07C089810F90DF91CF911F910F9195
:100540000895F80100851185E5CF362F90E0FC0174
:10055000E65DFE4F4491FC01E650FF4F2491FC0103
:10056000E653FF4F8491882309F44BC04423B1F133
:1005700050E0FA013197EB30F10580F5E45BFF4F75
:100580000C941B0C909180009F7707C09091800085
:100590009F7D03C090918000977F909380001EC044
:1005A00094B59F7702C094B59F7D94BD17C090917C
:1005B000B0009F7703C09091B0009F7D9093B000F2
:1005C0000DC0909190009F7707C0909190009F7D03
:1005D00003C090919000977F90939000E82FF0E0F7
:1005E000EE0FFF1FE454FF4FA591B4918FB7F8941D
:1005F000EC91311103C020952E2301C02E2B2C939A
:100600008FBF0895CF93DF9390E0FC01E650FF4F3A
:100610002491FC01E653FF4F8491882361F190E01F
:10062000880F991FFC01E255FF4FC591D491FC0141
:10063000E454FF4FA591B491611109C09FB7F8949C
:100640008881209582238883EC912E230BC0623011
:1006500061F49FB7F8943881822F80958323888333
:10066000EC912E2B2C939FBF06C08FB7F894E88196
:100670002E2B28838FBFDF91CF9108953FB7F89439
:100680008091610190916201A0916301B091640138
:1006900026B5A89B05C02F3F19F00196A11DB11DDD
:1006A0003FBFBA2FA92F982F8827820F911DA11D18
:1006B000B11DBC01CD0142E0660F771F881F991F55
:1006C0004A95D1F70895CF92DF92EF92FF920E9460
:1006D0003E036B017C010E943E03DC01CB018C19BF
:1006E0009D09AE09BF09883E9340A105B10598F365
:1006F000FF90EF90DF90CF9008958F929F92AF92EE
:10070000BF92CF92DF92EF92FF920F931F93CF93FE
:10071000DF936C015B017A0180910B01882309F45E
:1007200055C080917A01882309F450C080917801E6
:1007300080FF05C08091E00082608093E000E701C7
:1007400010E00AEF83E0882E9AE3992E2097B1F10A
:100750000E943B01811105C00150C1F10E94630359
:10076000F5CF282F30E0C217D3070CF48C2F4FB7EA
:10077000F8948092E9009091E80095FF1DC0282F21
:1007800030E0C21BD30BF501982F915020F08191DE
:100790008093F100FACFA20EB31E112319F09092AC
:1007A000E80009C08091E80085FD06C09092E8004D
:1007B00011E0209709F010E04FBFC8CF1111C8CF4A
:1007C00084E6809377011E141F0444F081E090E0DA
:1007D000F6019383828380E090E001C0C701DF913E
:1007E000CF911F910F91FF90EF90DF90CF90BF902E
:1007F000AF909F908F900895CF93DF93EC0160E0CE
:100800008E810E94A50261E08E810E94A50260E0B7
:100810008E810E94A5028BE891E00197F1F7DF91AC
:10082000CF910895AF92BF92CF92DF92EF92FF9255
:100830000F931F93CF93DF935C017C0187E0E80E59
:10084000F11CC0E0D0E0062F10E0670161E0F70185
:1008500081917F010E940203B8010C2E02C07595A0
:1008600067950A94E2F76170F60180810E94A50203
:100870002196C430D10549F7C501DF91CF911F9171
:100880000F91FF90EF90DF90CF90BF90AF900C94BE
:10089000FC03AF92BF92CF92DF92EF92FF920F9341
:1008A0001F93CF93DF93EC01F62E642F8C810E946F
:1008B000A5028D818F3F19F060E00E94A5028F850F
:1008C0000F2D10E084FF2DC05E0187E0A80EB11C43
:1008D000E12CF12C650161E0F50181915F010E943D
:1008E0000203B8010E2C02C0759567950A94E2F7D1
:1008F0006170F60180810E94A502FFEFEF1AFF0AE6
:1009000088E0E816F10431F7CE01DF91CF911F9115
:100910000F91FF90EF90DF90CF90BF90AF900C942D
:10092000FC03B80184E0759567958A95E1F7CE01DF
:100930000E9412046F2DCE01DF91CF911F910F9174
:10094000FF90EF90DF90CF90BF90AF900C94120487
:1009500041E00E94490481E090E008951F93CF9305
:10096000DF93EC01ED89FE89108141E00E9449048A
:10097000ED89FE89108381E090E0DF91CF911F9196
:10098000089540E00C9449040F931F93CF93DF9395
:10099000EC01623018F08F8588608F876B8B1C8A22
:1009A0008BE39DE00197F1F760E08C810E94A50246
:1009B00060E08E810E94A5028D818F3F19F060E07A
:1009C0000E94A5026F8564FD1DC063E0CE010E94F8
:1009D00012040BE416E4C8010197F1F763E0CE01BD
:1009E0000E941204C8010197F1F763E0CE010E9452
:1009F000120483E592E00197F1F762E0CE010E94D4
:100A0000120416C06062CE010E94C1048BE496E419
:100A10000197F1F76F856062CE010E94C10483E502
:100A200092E00197F1F76F856062CE010E94C104E8
:100A30006F856062CE010E94C10484E0888B6CE007
:100A4000CE010E94C10461E0CE010E94C1048BE38B
:100A50009FE10197F1F782E0898B66E0CE01DF919B
:100A6000CF911F910F910C94C104CF92DF92EF921E
:100A7000FF920F931F93CF93DF936C017A018B0149
:100A8000C0E0D0E0CE15DF0589F0D8016D918D0171
:100A9000D601ED91FC910190F081E02DC601099500
:100AA000892B11F47E0102C02196ECCFC701DF91A2
:100AB000CF911F910F91FF90EF90DF90CF9008950D
:100AC000089580E090E008950E94060C1F920F9216
:100AD0000FB60F9211248F939F938091E100909114
:100AE000E100937F9093E10083FF0FC01092E90033
:100AF00091E09093EB001092EC0092E39093ED0064
:100B000010927A0198E09093F00082FF1CC093E06D
:100B10009093E9009091F200992319F09AE3909351
:100B2000E80090917701992329F0909177019150F5
:100B30009093770190917901992329F0909179010F
:100B400091509093790184FF10C08091E2008E7ED5
:100B500081608093E2008091E1008F7E8093E100CC
:100B6000809178018E7E806111C080FF11C08091DC
:100B7000E2008E7E80618093E2008091E1008E7EB3
:100B80008093E100809178018E7E8160809378016E
:100B90009F918F910F900FBE0F901F9018951F92ED
:100BA0000F920FB60F921124CF92DF92EF92FF9225
:100BB0000F931F932F933F934F935F936F937F9365
:100BC0008F939F93AF93BF93EF93FF93CF93DF9355
:100BD000CDB7DEB76C97DEBFCDBF1092E900809134
:100BE000E80083FF01C2FE017596DE2ECF2E88E05D
:100BF0008E0F8E1729F09091F10090833196F9CFE6
:100C000084E68093790182EF8093E8008D8987FFE5
:100C100005C09091E80090FFFCCF03C09EEF909339
:100C2000E800982F907609F0C5C09E892F89188D0D
:100C300091110CC0803829F480916A018093F100F1
:100C400002C01092F1001092F1004FC1422F50E00B
:100C5000512B913051F4811148C14130510509F0B7
:100C600044C180916A018D7F0BC0933061F4811182
:100C70003CC14130510509F038C180916A01826060
:100C800080936A0132C1953041F48091E80080FF81
:100C9000FCCF20682093E30028C1963009F05EC0A5
:100CA000EB8CFC8C1092E9001092680110926701A5
:100CB000123091F510926601109265010E94730244
:100CC00099E0BE016F5F7F4FDB01E92F1D92EA952E
:100CD000E9F799831A8391E09E8390EA98879AEFC7
:100CE00099872091670130916801275F3F4F3C83CE
:100CF0002B838D831092E900109268011092670196
:100D0000F0926601E092650149E050E080E00E94C7
:100D10004C020E947302E9C0F0926601E092650104
:100D20000E94CD01DC011296ED90FC901397E11426
:100D3000F10409F4C7C0D701ED91FC910480F5815D
:100D4000E02D6D2D7C2DC7010995009719F00CF051
:100D5000CCC0CFC0F701E084F184E9CF973009F42B
:100D6000C8C0983021F481E08093F100BEC0993072
:100D700009F0BBC0837009F0BCC0EBE1F1E081E099
:100D800021E036E39081992361F08093E90020937C
:100D9000EB0091919093EC003093ED008F5F8730E2
:100DA00089F78EE78093EA001092EA008F8980939A
:100DB0007A019BC08B8D9C8D1092E9001092680186
:100DC000109267019093660180936501898D81116E
:100DD0005FC08E899D89913A59F4813209F089C0AA
:100DE00047E050E064E071E080E00E944C027DC08A
:100DF000913209F07EC0833289F4888D90E0982F7B
:100E000088272F89822BA0E0B0E080930001909387
:100E10000101A0930201B093030167C08032B1F4D5
:100E20008091E80082FFFCCFE4E0F1E087E08E0FE4
:100E30008E1729F09091F10090833196F9CF84E6D6
:100E4000809379018BEF8093E80006C0823209F02D
:100E50004CC08F8980930B0180916901882319F020
:100E6000EEEFF0E102C0E0E0F8E080910401909143
:100E70000501A0910601B0910701803B9440A105B6
:100E8000B10509F07CC080910B0180FF94C077C050
:100E90000E94CD01DC0112960D911C911397011552
:100EA000110539F1D801ED91FC910190F081E02D0F
:100EB0006D2D7C2DC8010995811117C0F8010085A1
:100EC0001185EDCF113009F44FC0133091F48F89A3
:100ED000882309F446C0823081F440E86FE08DEB4E
:100EE00091E00E940F02882321F08EEF8093E800AA
:100EF0007BC081E28093EB0077C0813029F440E829
:100F00006AE082EB91E0EDCF833099F7DE01119634
:100F100040E050E0CD0161E2FA013E966093570057
:100F2000E4912E2F30E074E0359527957A95E1F71E
:100F3000EF702A30310514F4205D01C0295C2C9338
:100F4000EA3010F4E05D01C0E95C1196EC93119772
:100F50004F5F5F4F12964A305105F1F640E064E171
:100F6000C0CF6CE971E002C060EA71E06115710503
:100F700009F4BFCFFB01449150E080E836CF0FB6B3
:100F8000F894A89580916000886180936000109229
:100F900060000FBEA895EE3F20E1F20739F0809186
:100FA000FE109091FF10918380839FCF1092FF10CD
:100FB0001092FE109ACFEE3F80E1F80731F0808169
:100FC00091819093FF108093FE1087E797E79183BC
:100FD00080839BE088E10FB6F894A8958093600029
:100FE0000FBE9093600081CF6C960FB6F894DEBF71
:100FF0000FBECDBFDF91CF91FF91EF91BF91AF9128
:101000009F918F917F916F915F914F913F912F9120
:101010001F910F91FF90EF90DF90CF900F900FBE38
:101020000F901F9018951F920F920FB60F921124D8
:101030002F933F938F939F93AF93BF9380915D01C5
:1010400090915E01A0915F01B091600130915C01CF
:1010500023E0230F2D3720F40196A11DB11D05C0FB
:1010600026E8230F0296A11DB11D20935C018093F9
:101070005D0190935E01A0935F01B0936001809148
:10108000610190916201A0916301B09164010196A8
:10109000A11DB11D8093610190936201A093630132
:1010A000B0936401BF91AF919F918F913F912F9128
:1010B0000F900FBE0F901F90189510927E01109206
:1010C0007D0188EE93E0A0E0B0E080937F019093F3
:1010D0008001A0938101B093820185E291E0909319
:1010E0007C0180937B018FEF9FEF90938801809329
:1010F00087011092CE011092CD0187E391E0909389
:10110000CC018093CB0187E18093CF0186E180936E
:10111000D00185E18093D10180E28093D20181E208
:101120008093D30182E28093D40183E28093D5013E
:1011300084E28093D60185E28093D70186E2809392
:10114000D80187E28093D90161E087E10E94020320
:101150008091D0018F3F19F061E00E94020361E0AD
:101160008091D1010E94020380E18093DA0161E065
:101170008BEC91E00E94C40483E491E09093CC0155
:101180008093CB0182E290E09093E1018093E001B3
:101190000895CF93DF93CDB7DEB728970FB6F894B5
:1011A000DEBF0FBECDBF789484B5826084BD84B5A8
:1011B000816084BD85B5826085BD85B5816085BD52
:1011C00080916E00816080936E001092810080910A
:1011D0008100826080938100809181008160809392
:1011E0008100809180008160809380008091B100B7
:1011F00084608093B1008091B00081608093B000E2
:101200008091910082608093910080919100816033
:1012100080939100809190008160809390008091F4
:101220007A00846080937A0080917A008260809353
:101230007A0080917A00816080937A0080917A00B0
:10124000806880937A0010927A0110926A0110925D
:1012500078018091D70081608093D70080EA8093E5
:10126000D80089B5837E886189BD89B5826089BDD2
:1012700009B400FEFDCF0E9463038091D8008F7CEB
:1012800080618093D8008091E000887F8093E000A7
:101290008091E1008E7E8093E1008DE08093E200FA
:1012A000EEEFFFEF859194918B3F9C4D19F481E017
:1012B0008093690161E084E10E94A50262E08BEC09
:1012C00091E00E94C404E091E001F091E1011081FD
:1012D00061E08BEC91E00E94C104E091E001F091AB
:1012E000E10110838BE39FE10197F1F78FEF81B963
:1012F00012B862E083E10E94020362E082E10E9490
:10130000020362E081E10E94020362E080E10E9448
:10131000020362E08FE20E94020361E08EE20E941B
:10132000020398E0D92E00E010E0E2E1F1E0DE01F6
:1013300011968D2D01900D928A95E1F7E1E0809153
:10134000DE018111E0E0E195F0E0EE0FFF1F81E0AA
:1013500090E08C0F9D1FE80FF91F608160688BEC97
:1013600091E00E94C10460E170E080E090E00E94A2
:101370003C0B7C01009749F0FC0110826BE471E0AA
:101380000E94140C4FE050E002C040E050E0B70172
:101390008BEC91E00E943505C7010E94A40A01155B
:1013A000110519F20E940000C0CFF8940C94210C92
:1013B0002F923F924F925F926F927F928F929F9265
:1013C000AF92BF92CF92DF92EF92FF920F931F9353
:1013D000CF93DF93CDB7DEB7CA1BDB0B0FB6F89404
:1013E000DEBF0FBECDBF09942A88398848885F8444
:1013F0006E847D848C849B84AA84B984C884DF80B5
:10140000EE80FD800C811B81AA81B981CE0FD11D98
:101410000FB6F894DEBF0FBECDBFED010895CF9398
:10142000DF938230910510F482E090E0E091E401D6
:10143000F091E50120E030E0C0E0D0E0309711F11C
:101440004081518148175907C0F04817590761F486
:1014500082819381209719F09B838A832BC090937C
:10146000E5018093E40126C02115310519F04217EA
:10147000530718F49A01BE01DF01EF010280F381E6
:10148000E02DDCCF2115310509F1281B390B243063
:10149000310590F412968D919C9113976115710509
:1014A00021F0FB019383828304C09093E501809334
:1014B000E401FD01329644C0FD01E20FF31F819368
:1014C0009193225031092D933C933AC02091E2012F
:1014D0003091E301232B41F420910E0130910F0153
:1014E0003093E3012093E20120910C0130910D0132
:1014F0002115310541F42DB73EB7409110015091AF
:101500001101241B350BE091E201F091E301E21798
:10151000F307A0F42E1B3F0B2817390778F0AC0116
:101520004E5F5F4F2417350748F04E0F5F1F5093F3
:10153000E3014093E2018193919302C0E0E0F0E087
:10154000CF01DF91CF9108950F931F93CF93DF9336
:10155000009709F48CC0FC0132971382128200912B
:10156000E4011091E5010115110581F4208131811B
:10157000820F931F2091E2013091E3012817390770
:1015800079F5F093E301E093E20171C0D80140E006
:1015900050E0AE17BF0750F412962D913C9113976F
:1015A000AD012115310509F1D901F3CF9D01DA0112
:1015B0003383228360817181860F971F821793077F
:1015C00069F4EC0128813981260F371F2E5F3F4FC8
:1015D000318320838A819B8193838283452B29F4E5
:1015E000F093E501E093E40142C01396FC93EE937F
:1015F0001297ED01499159919E01240F351FE21771
:10160000F30771F480819181840F951F02961196E2
:101610009C938E938281938113969C938E931297C1
:10162000E0E0F0E0D80112968D919C91139700971D
:1016300019F0F8018C01F6CF8D919C9198012E5FE5
:101640003F4F820F931F2091E2013091E301281751
:10165000390769F4309729F41092E5011092E401FA
:1016600002C0138212821093E3010093E201DF9122
:10167000CF911F910F910895A0E0B0E0E2E4FBE06C
:101680000C94DC09EC01009721F4CB010E940F0AB5
:10169000B8C0FC01E60FF71F9C0122503109E21788
:1016A000F30708F4ACC0D9010D911C9111970617EE
:1016B0001707B0F00530110508F49FC0C801049762
:1016C0008617970708F499C002501109061B170BDB
:1016D000019311936D937C93CF010E94A40A8DC056
:1016E0005B01A01AB10A4C01800E911EA091E40189
:1016F000B091E50140E050E0E12CF12C109709F4A5
:101700004AC0A815B905D1F56D907C901197630179
:1017100082E0C80ED11CCA14DB0480F1A3014A196F
:101720005B096A0182E0C80ED11C1296BC90129728
:101730001396AC91B5E0CB16D10440F0B282A383EE
:1017400051834083D9016D937C930AC00E5F1F4F74
:10175000C301800F911FF90191838083EB2DFA2F34
:10176000E114F10431F0D7011396FC93EE93129734
:1017700044C0F093E501E093E4013FC08D919C915A
:1017800011974817590708F4AC017D0112960D9086
:10179000BC91A02DB3CF8091E2019091E301881517
:1017A0009905E1F446175707C8F480910C01909110
:1017B0000D01009741F48DB79EB7409110015091F3
:1017C0001101841B950BE817F907C8F4F093E301A6
:1017D000E093E201F901718360830FC0CB010E94A5
:1017E0000F0A7C01009759F0A801BE010E940B0C62
:1017F000CE010E94A40AC70104C0CE0102C080E04D
:1018000090E0CDB7DEB7EEE00C94F80981E090E00F
:10181000F8940C94210CFB01DC0102C001900D92A4
:1018200041505040D8F70895FB01DC0101900D9222
:101830000020E1F70895EE0FFF1F0590F491E02DD1
:061840000994F894FFCFAB
:10184600FFFFFFFF00E10000000000000000E601CE
:101856008000000040001400540000C18081000098
:1018660000000000004C017D036D016201B30171AF
:10187600018F0100000000A8043505610560050020
:10188600000000AE0435056105600548616C6C6FAB
:0C189600204477656E6775696E6F000076
:00000001FF
